{
  "_format": "hh-sol-artifact-1",
  "contractName": "WavePortal",
  "sourceName": "contracts/WavePortal.sol",
  "abi": [
    {
      "inputs": [],
      "stateMutability": "payable",
      "type": "constructor"
    },
    {
      "anonymous": false,
      "inputs": [
        {
          "indexed": true,
          "internalType": "address",
          "name": "from",
          "type": "address"
        },
        {
          "indexed": false,
          "internalType": "uint256",
          "name": "timestamp",
          "type": "uint256"
        },
        {
          "indexed": false,
          "internalType": "string",
          "name": "message",
          "type": "string"
        }
      ],
      "name": "NewWave",
      "type": "event"
    },
    {
      "inputs": [],
      "name": "getAllWaves",
      "outputs": [
        {
          "components": [
            {
              "internalType": "address",
              "name": "waver",
              "type": "address"
            },
            {
              "internalType": "string",
              "name": "message",
              "type": "string"
            },
            {
              "internalType": "uint256",
              "name": "timestamp",
              "type": "uint256"
            }
          ],
          "internalType": "struct WavePortal.Wave[]",
          "name": "",
          "type": "tuple[]"
        }
      ],
      "stateMutability": "view",
      "type": "function"
    },
    {
      "inputs": [],
      "name": "getTotalWaves",
      "outputs": [
        {
          "internalType": "uint256",
          "name": "",
          "type": "uint256"
        }
      ],
      "stateMutability": "view",
      "type": "function"
    },
    {
      "inputs": [
        {
          "internalType": "address",
          "name": "",
          "type": "address"
        }
      ],
      "name": "lastWaveAt",
      "outputs": [
        {
          "internalType": "uint256",
          "name": "",
          "type": "uint256"
        }
      ],
      "stateMutability": "view",
      "type": "function"
    },
    {
      "inputs": [
        {
          "internalType": "string",
          "name": "_message",
          "type": "string"
        }
      ],
      "name": "wave",
      "outputs": [],
      "stateMutability": "nonpayable",
      "type": "function"
    }
  ],
  "bytecode": "0x60806040526200003360405180606001604052806033815260200162001418603391396200003960201b620006491760201c565b620001cd565b620000d98160405160240162000050919062000146565b6040516020818303038152906040527f41304fac000000000000000000000000000000000000000000000000000000007bffffffffffffffffffffffffffffffffffffffffffffffffffffffff19166020820180517bffffffffffffffffffffffffffffffffffffffffffffffffffffffff8381831617835250505050620000dc60201b60201c565b50565b60008151905060006a636f6e736f6c652e6c6f679050602083016000808483855afa5050505050565b600062000112826200016a565b6200011e818562000175565b93506200013081856020860162000186565b6200013b81620001bc565b840191505092915050565b6000602082019050818103600083015262000162818462000105565b905092915050565b600081519050919050565b600082825260208201905092915050565b60005b83811015620001a657808201518184015260208101905062000189565b83811115620001b6576000848401525b50505050565b6000601f19601f8301169050919050565b61123b80620001dd6000396000f3fe608060405234801561001057600080fd5b506004361061004c5760003560e01c8063449d46c0146100515780639a2cdc081461006d578063bd43a9081461008b578063cb199503146100a9575b600080fd5b61006b60048036038101906100669190610a2b565b6100d9565b005b6100756104d7565b6040516100829190610ddd565b60405180910390f35b6100936104e0565b6040516100a09190610c94565b60405180910390f35b6100c360048036038101906100be9190610a02565b610631565b6040516100d09190610ddd565b60405180910390f35b42601e600260003373ffffffffffffffffffffffffffffffffffffffff1673ffffffffffffffffffffffffffffffffffffffff168152602001908152602001600020546101269190610eef565b10610166576040517f08c379a000000000000000000000000000000000000000000000000000000000815260040161015d90610dbd565b60405180910390fd5b42600260003373ffffffffffffffffffffffffffffffffffffffff1673ffffffffffffffffffffffffffffffffffffffff1681526020019081526020016000208190555060016000808282546101bc9190610eef565b925050819055506102036040518060400160405280601781526020017f257320776176656420772f206d6573736167657320257300000000000000000081525033836106e2565b600360405180606001604052803373ffffffffffffffffffffffffffffffffffffffff16815260200183815260200142815250908060018154018082558091505060019003906000526020600020906003020160009091909190915060008201518160000160006101000a81548173ffffffffffffffffffffffffffffffffffffffff021916908373ffffffffffffffffffffffffffffffffffffffff16021790555060208201518160010190805190602001906102c29291906108e2565b506040820151816002015550503373ffffffffffffffffffffffffffffffffffffffff167f5f7e16dc676677766a70e9c5628aa6c54ddb8b6e5188e2ae1e1f17f1ffbea7164283604051610317929190610df8565b60405180910390a26000606460015444426103329190610eef565b61033c9190610eef565b6103469190611026565b90506103876040518060400160405280601681526020017f52616e646f6d20232067656e6572617465643a2025730000000000000000000081525082610781565b8060018190555060328110156104d3576103d66040518060400160405280600781526020017f257320776f6e21000000000000000000000000000000000000000000000000008152503361081d565b6000655af3107a4000905047811115610424576040517f08c379a000000000000000000000000000000000000000000000000000000000815260040161041b90610d9d565b60405180910390fd5b60003373ffffffffffffffffffffffffffffffffffffffff168260405161044a90610c7f565b60006040518083038185875af1925050503d8060008114610487576040519150601f19603f3d011682016040523d82523d6000602084013e61048c565b606091505b50509050806104d0576040517f08c379a00000000000000000000000000000000000000000000000000000000081526004016104c790610d7d565b60405180910390fd5b50505b5050565b60008054905090565b60606003805480602002602001604051908101604052809291908181526020016000905b8282101561062857838290600052602060002090600302016040518060600160405290816000820160009054906101000a900473ffffffffffffffffffffffffffffffffffffffff1673ffffffffffffffffffffffffffffffffffffffff1673ffffffffffffffffffffffffffffffffffffffff16815260200160018201805461058d90610fc3565b80601f01602080910402602001604051908101604052809291908181526020018280546105b990610fc3565b80156106065780601f106105db57610100808354040283529160200191610606565b820191906000526020600020905b8154815290600101906020018083116105e957829003601f168201915b5050505050815260200160028201548152505081526020019060010190610504565b50505050905090565b60026020528060005260406000206000915090505481565b6106df8160405160240161065d9190610cb6565b6040516020818303038152906040527f41304fac000000000000000000000000000000000000000000000000000000007bffffffffffffffffffffffffffffffffffffffffffffffffffffffff19166020820180517bffffffffffffffffffffffffffffffffffffffffffffffffffffffff83818316178352505050506108b9565b50565b61077c8383836040516024016106fa93929190610d08565b6040516020818303038152906040527fe0e9ad4f000000000000000000000000000000000000000000000000000000007bffffffffffffffffffffffffffffffffffffffffffffffffffffffff19166020820180517bffffffffffffffffffffffffffffffffffffffffffffffffffffffff83818316178352505050506108b9565b505050565b6108198282604051602401610797929190610d4d565b6040516020818303038152906040527f9710a9d0000000000000000000000000000000000000000000000000000000007bffffffffffffffffffffffffffffffffffffffffffffffffffffffff19166020820180517bffffffffffffffffffffffffffffffffffffffffffffffffffffffff83818316178352505050506108b9565b5050565b6108b58282604051602401610833929190610cd8565b6040516020818303038152906040527f319af333000000000000000000000000000000000000000000000000000000007bffffffffffffffffffffffffffffffffffffffffffffffffffffffff19166020820180517bffffffffffffffffffffffffffffffffffffffffffffffffffffffff83818316178352505050506108b9565b5050565b60008151905060006a636f6e736f6c652e6c6f679050602083016000808483855afa5050505050565b8280546108ee90610fc3565b90600052602060002090601f0160209004810192826109105760008555610957565b82601f1061092957805160ff1916838001178555610957565b82800160010185558215610957579182015b8281111561095657825182559160200191906001019061093b565b5b5090506109649190610968565b5090565b5b80821115610981576000816000905550600101610969565b5090565b600061099861099384610e4d565b610e28565b9050828152602081018484840111156109b057600080fd5b6109bb848285610f81565b509392505050565b6000813590506109d2816111ee565b92915050565b600082601f8301126109e957600080fd5b81356109f9848260208601610985565b91505092915050565b600060208284031215610a1457600080fd5b6000610a22848285016109c3565b91505092915050565b600060208284031215610a3d57600080fd5b600082013567ffffffffffffffff811115610a5757600080fd5b610a63848285016109d8565b91505092915050565b6000610a788383610c11565b905092915050565b610a8981610f45565b82525050565b610a9881610f45565b82525050565b6000610aa982610e8e565b610ab38185610eb1565b935083602082028501610ac585610e7e565b8060005b85811015610b015784840389528151610ae28582610a6c565b9450610aed83610ea4565b925060208a01995050600181019050610ac9565b50829750879550505050505092915050565b6000610b1e82610e99565b610b288185610ecd565b9350610b38818560208601610f90565b610b4181611113565b840191505092915050565b6000610b5782610e99565b610b618185610ede565b9350610b71818560208601610f90565b610b7a81611113565b840191505092915050565b6000610b92602783610ede565b9150610b9d82611124565b604082019050919050565b6000610bb5603983610ede565b9150610bc082611173565b604082019050919050565b6000610bd8601783610ede565b9150610be3826111c2565b602082019050919050565b6000610bfb600083610ec2565b9150610c06826111eb565b600082019050919050565b6000606083016000830151610c296000860182610a80565b5060208301518482036020860152610c418282610b13565b9150506040830151610c566040860182610c61565b508091505092915050565b610c6a81610f77565b82525050565b610c7981610f77565b82525050565b6000610c8a82610bee565b9150819050919050565b60006020820190508181036000830152610cae8184610a9e565b905092915050565b60006020820190508181036000830152610cd08184610b4c565b905092915050565b60006040820190508181036000830152610cf28185610b4c565b9050610d016020830184610a8f565b9392505050565b60006060820190508181036000830152610d228186610b4c565b9050610d316020830185610a8f565b8181036040830152610d438184610b4c565b9050949350505050565b60006040820190508181036000830152610d678185610b4c565b9050610d766020830184610c70565b9392505050565b60006020820190508181036000830152610d9681610b85565b9050919050565b60006020820190508181036000830152610db681610ba8565b9050919050565b60006020820190508181036000830152610dd681610bcb565b9050919050565b6000602082019050610df26000830184610c70565b92915050565b6000604082019050610e0d6000830185610c70565b8181036020830152610e1f8184610b4c565b90509392505050565b6000610e32610e43565b9050610e3e8282610ff5565b919050565b6000604051905090565b600067ffffffffffffffff821115610e6857610e676110e4565b5b610e7182611113565b9050602081019050919050565b6000819050602082019050919050565b600081519050919050565b600081519050919050565b6000602082019050919050565b600082825260208201905092915050565b600081905092915050565b600082825260208201905092915050565b600082825260208201905092915050565b6000610efa82610f77565b9150610f0583610f77565b9250827fffffffffffffffffffffffffffffffffffffffffffffffffffffffffffffffff03821115610f3a57610f39611057565b5b828201905092915050565b6000610f5082610f57565b9050919050565b600073ffffffffffffffffffffffffffffffffffffffff82169050919050565b6000819050919050565b82818337600083830152505050565b60005b83811015610fae578082015181840152602081019050610f93565b83811115610fbd576000848401525b50505050565b60006002820490506001821680610fdb57607f821691505b60208210811415610fef57610fee6110b5565b5b50919050565b610ffe82611113565b810181811067ffffffffffffffff8211171561101d5761101c6110e4565b5b80604052505050565b600061103182610f77565b915061103c83610f77565b92508261104c5761104b611086565b5b828206905092915050565b7f4e487b7100000000000000000000000000000000000000000000000000000000600052601160045260246000fd5b7f4e487b7100000000000000000000000000000000000000000000000000000000600052601260045260246000fd5b7f4e487b7100000000000000000000000000000000000000000000000000000000600052602260045260246000fd5b7f4e487b7100000000000000000000000000000000000000000000000000000000600052604160045260246000fd5b6000601f19601f8301169050919050565b7f4661696c656420746f207769746864726177206d6f6e65792066726f6d20636f60008201527f6e74726163742e00000000000000000000000000000000000000000000000000602082015250565b7f547279696e6720746f207769746864726177206d6f7265206d6f6e657920746860008201527f616e20746861742074686520636f6e7472616374206861732e00000000000000602082015250565b7f506c656173652057616974203135206d696e7574657321000000000000000000600082015250565b50565b6111f781610f45565b811461120257600080fd5b5056fea2646970667358221220487c5f048a8afb73fa71fcd0045e03626c9b26f137cd26fba7ea0cf673a94c8e64736f6c634300080400335468697320636f6e747261637420697320676f696e6720746f20646f20736f6d657468696e6720696e746572657374696e6721",
  "linkReferences": {},
  "deployedLinkReferences": {}
}